:020000040800F2
:10000000C00C0020C5000008BF0F0008BD0F00088D
:1000100000000000000000000000000000000000E0
:1000200000000000000000000000000011100008A7
:100030000000000000000000C10F000815100008BB
:10004000D700000800000000D7000008D700000813
:10005000D7000008D7000008D7000008D700000824
:1000600000000000D7000008D7000008D7000008F3
:10007000D7000008D7000008D700000800000000E3
:10008000D700000800000000000000000917000869
:1000900000000000D7000008D7000008D7000008C3
:1000A00000000000D700000800000000851B0008C9
:1000B0000348854600F014F800480047851F0008F3
:1000C000C00C00200448804704480047FEE7FEE7D4
:1000D000FEE7FEE7FEE7FEE7A9100008B100000812
:1000E000064C0125064E05E0E36807CC2B430C3C8B
:1000F00098471034B442F7D3FFF7DEFF682E0008AC
:10010000882E000870B50446002903D00020202264
:10011000012310E0002801D00020C043C046C046A3
:100120000DE02546D5408D4205D30D469540641B14
:100130001D46954040191546521E002DF1DC214602
:1001400070BDD2B201E00270401C491EFBD2704764
:100150000022F6E710B513460A4604461946FFF793
:10016000F0FF204610BD0000B0B582B04A68537859
:1001700014782402E318254C2488A34240D3224D4E
:100180002D88AB423CD81B1B9278012A05D0022A4D
:1001900008D1DAB21E4B002402E0DAB21C4B012473
:1001A0009C5400E0DAB21A4B1D781A4C25705D7829
:1001B00065709D78A570DD78E5701D7925715D7994
:1001C00065719D79A571DD79E5711D7A25725D7A7C
:1001D00065729D7AA572DD7AE5721D7B25735D7B64
:1001E00065739D7BA573DD7BE5739A5C01230B81B1
:1001F00001AB4B60012A00D002221A7001F0E6F830
:10020000012002B0B0BDC046A6080020A80800200A
:10021000AA08002098010020F0B583B000240294C1
:100220003427444EF15D012902D1022003B0F0BD14
:1002300033689968490716D4019744C801252F46A9
:1002400097403D4908388E4213D1986AB843986266
:100250001046A84310282046364E019F67D1102A29
:100260001AD03A4819E0B06B20210143B163012054
:100270005DE0996A394399622E4EF76A791E072923
:100280003FD21046A84310282046019F4FD1134665
:10029000102A08D0A80507E02B4828490A68024020
:1002A0000A60204643E0E80524490A6802430A60E0
:1002B000102B20463BD1224800682249FFF722FF3D
:1002C0000A21414302910298002820462FD002982B
:1002D000401E02900298002824D00298401E0290EE
:1002E0000298002820D00298401E02900298002810
:1002F0001CD00298401E029002980028E7D12046A8
:1003000015E029078F42BCD059690727394080681A
:100310008842B6D05969B943596138405969014397
:100320005961AEE7204602E0204600E02046F45541
:1003300003B0F0BD0C0000200110000008270140B0
:100340000000002040420F00FFFF7FFFFFFFBFFFC4
:1003500081B01748417D00290ED100210175016847
:10036000144A914208D1DC490A6840231A430A60C2
:10037000096819400091009902214175017900290D
:1003800001D0826801E00021CA4301680A618A68DD
:1003900060239A43C36813438B608A6880239A431F
:1003A000036913438B600121417501B07047C0465A
:1003B0004C00002000300240F0B58BB00F68002FD9
:1003C00000D1C3E002466248824201D0052000E02D
:1003D00003200090012400252B46019404910292F1
:1003E0000CE03A43089B5B4802600F683846E040E7
:1003F000AD1C1B1D641C002800D1A7E0661E0198DF
:100400000996B04007400597EFD0089303231A469A
:10041000AA40D2430E46294675682E461E40771ED6
:10042000012F07920691039412D81746029A9368F7
:100430003B40049CE7688F401F439760EB06DB0F4F
:10044000099FBB40576887431F4357602C4607E00E
:10045000032E029A2C4603D11E46049F089B1FE0E0
:10046000D068079B1840049FBB6806998B400343E4
:10047000D360022E089B13D11C20184015460F2272
:100480008240099BDB089B00EB181E6A96433A6981
:10049000824032431A622A46089B7C680326264023
:1004A000069DAE4010683946079F384030431060C3
:1004B000A003800F039C98D0274A116801200143B4
:1004C0001160116801400A910C271F400F23BB40A7
:1004D00003260999B1430A9E204A8E589E43029AE8
:1004E0001E4BC9180923DB069A4208D01C4B9A42BE
:1004F00006D01C488242009802D1022000E0002071
:10050000B840304308601348826804994868C302C1
:1005100002D5059F3A4301E0059FBA430D4B9A600F
:10052000DA68830201D53A4300E0BA43094BDA6046
:100530005A68830301D53A4300E0BA43054B5A6039
:100540001A68C00300D54CE7BA434BE70BB0F0BDC7
:10055000000C00480004014018100240080001404F
:10056000000400480008004870B540235849CC5C9E
:1005700041228D5C0220202D15D1012C13D0242086
:1005800088540020C8540B681C680125AC431C60CB
:100590002C031E68A6431E601C681C601C682C434C
:1005A0001C6020238B5470BD70B540234849CC5C3F
:1005B00041228D5C0220202D14D1012C12D0242048
:1005C00088540020C8540B681C680125AC431C608B
:1005D0000F2424021E68A6431E601C682C431C6066
:1005E00020238B5470BDC046F0B587B04125384CF0
:1005F000605D002826D14021002060542168354AE2
:1006000091421FD101277904334E32680A43326088
:1006100032680A400192042106910490122003904E
:10062000032005904002029001980920C00602A90B
:10063000FFF7C2FE7805B1680143B160B1680140BF
:1006400001910198242060552068026801218A43A5
:1006500002600F22120663689343036183681F4A96
:1006600013408360A368E668012E03D1CE033343B1
:1006700083600AE02127BF023B438360022E04D13E
:10068000CB0246681E43466003E0CB0246689E43A9
:1006900046604368124E1E434660C3681340C36001
:1006A000226963691343A26912021A43C260E269B4
:1006B000236A1343036002680A43026000206064F7
:1006C0002021615520634221605407B0F0BDC0462F
:1006D000680000200054004014100240FF7FFFFF1C
:1006E00000800002F0B589B0D74FF86FD74C0028D2
:1006F0002DD17821002078543968D54A914226D1ED
:10070000616901250895AA0311436161616911407E
:1007100003910399690422690A43226122690A400C
:100720000392032107910690022005900E20049069
:1007300003980920C00604A9FFF73EFEFF2000062B
:10074000C4490A6882430A60E806C3490860242055
:10075000F8673E6830680125A8433060786A002851
:1007600055D001070CD4C10712D1810718D4410715
:100770001ED4C10624D481062AD4410630D43EE0DA
:10078000E90372688A43796B11437160C107ECD049
:10079000690472688A43B96A114371608107E6D5BA
:1007A000290472688A43F96A114371604107E0D5F0
:1007B000A90472688A43396B11437160C106DAD5A6
:1007C0002903B2688A43B96B1143B1608106D4D55D
:1007D0006903B2688A43F96B1143B16041060ED5D3
:1007E000290572688A433B6C1A4372608B4206D1BA
:1007F0000321490572688A43796C114371600006D0
:1008000005D5E80471688143B86C084370603068AE
:1008100092490140B8683A69024378691043084335
:10082000F969084330600320029000037268824334
:10083000F86810437060B8693A6A02430B200002FE
:10084000B36883431343B360E06A8007000F84A258
:100850001358EA038648914216D1082B00D9B0E01C
:100860007B441B795B009F4404AC44AC27ACACAC2C
:1008700043008448006821684905490F824A515C59
:10088000C840002835D16CE0082B00D999E0C0465B
:100890007B441B795B009F44049459943C9494944A
:1008A00058007848006821684905490F764A515C2C
:1008B000C84000284AD154E021680C220A40082A86
:1008C00017D18A02120F6B4B9A5C0192A26A6A4B93
:1008D0001033194200D1ABE00F210A406749895C0F
:1008E000FFF710FC019941430846002801D138E088
:1008F0001046400079684A081018FFF703FC0246CA
:10090000103A5D498A425CD201400007400F08431B
:1009100026E021680C220A40082A17D18A02120F09
:10092000544B9A5C0192A26A534B1033194200D186
:1009300084E00F210A405149895CFFF7E3FB0199EC
:1009400041430846002801D10BE0104679684A0867
:100950001018FFF7D7FB01461039474A914230D2B1
:10096000F060A803B1680143B160E803B168814356
:10097000B1603068454901403160306828433060DB
:10098000842000243C50BC66FC6641480268306804
:1009900000071CD569052C4E3046019201F06EF817
:1009A000002812D0EFF3108085F3108831680A68B0
:1009B00080239A430A6080F310882020F067029D0C
:1009C00031E00020B866F8662FE03668019A30689A
:1009D000400721D5A9051C4E304601F04FF80028EC
:1009E0001AD0EFF3108085F310880921490132688D
:1009F00013688B43136080F31088EFF3108085F346
:100A0000108831688A68AA438A6080F31088802041
:100A100020213150029D06E02020F8678021785087
:100A20003C667C66254678203C54284609B0F0BDDB
:100A3000134801994843002893D05AE71048019978
:100A4000484300288DD081E70401002004100240B3
:100A50000038014018E400E000E100E0F369FFFF26
:100A60000000000004000000080000000200000078
:100A700000127A003E2E0008F0FF00004E2E000803
:100A800000093D00000000205E2E0008FFFF00FC72
:100A9000BC08002070B581B03D2052490A5C002A94
:100AA00001D00A681DE03C2200238B540A68384BB1
:100AB0009A4216D101221402364D2E6826432E602A
:100AC0002D6825400095009CFF242406324D2E6899
:100AD000A6430324A40734192C60D2042F4C2260AF
:100AE0001A4602230B5415683F4B9A4202D03F4CE2
:100AF000A24204D17024A5438C682C4300E02C460C
:100B0000274DAA4208DD9A420CD0264DAA4209D0B0
:100B1000254DAA4206D038E0344DAA4202D01C4DE1
:100B2000AA4232D103252D02AC430D69254380240E
:100B3000A5438C692C431460CC68D4624C689462E1
:100B40009A4205D0174B9A4202D0174B9A4201D1D4
:100B50004B691363012353611469E40702D01469DC
:100B60009C43146146228B543E228B540A463E32EB
:100B700053709370D37042228B540A4642325370A2
:100B80009370D3700B5401B070BD2546CFE7C046BB
:100B9000002000401C10024010E400E000E100E0F2
:100BA000FF2B014000480140004401403D200D4919
:100BB0000A5C012A14D102220A540868C268012181
:100BC0000A43C260084A904202D0084A904204D1C7
:100BD000826807231340062B02D002680A43026092
:100BE0007047C046BC000020002C014000040040BB
:100BF000F0B581B07748056801222A620221296296
:100C000004210091296210232B6208212962EFF34D
:100C1000108582F310880926760107683C68B44382
:100C20003C6085F31088EFF3108482F31088056828
:100C3000AE689643AE6084F31088046E012C09D12F
:100C4000EFF3108482F3108805682E689E432E60AF
:100C500084F310880468A468640630D5EFF3108428
:100C600082F310880568AE684027BE43AE6084F307
:100C70001088456F002D22D02E46203600276F6346
:100C80007478022C11D12B681C6800970E27BC4386
:100C90001C601C6894431C60EB6B2C6C1546A540D3
:100CA0005D60009B3370727009E03770009AAA6330
:100CB000426F926B202A02D1842143500CE05A22C9
:100CC0000023835202680F24146294690C439461D8
:100CD000802120224250036600F002F801B0F0BDEE
:100CE000F0B581B080233B48C15820290AD18568DE
:100CF00001210A03954207D10469002C04D1A74CB5
:100D0000E40701D001B0F0BD0024046606687668EF
:100D100036020DD5EFF31085009581F310888E060D
:100D200007683D6835433D60009D85F31088856800
:100D30005A26815358268153984E46658466002D65
:100D400007D0954225460AD10569002D06D1224DCE
:100D500005E00569002D01D07F2500E0FF258426F0
:100D600084515C2405532224C450EFF3108381F393
:100D700010880468A5680D43A56083F31088036993
:100D80008468944204D1002B14D0144A826603E094
:100D9000124A8266002B0FD0EFF3108281F3108885
:100DA00009214901006803680B43036082F310883E
:100DB00001B0F0BD0A4A8266EFF3108281F3108819
:100DC0000068016820230B43036082F3108801B0A0
:100DD000F0BDC04604010020FF010000BB1900085F
:100DE000FB180008F0B581B0AD4CA17A6B480078D3
:100DF000A289322A15D3002901D00021A172002135
:100E0000A181012809D169480021215466486A4A14
:100E10002252634821520320A072FFF761FF01B004
:100E2000F0BD0025A5810629F7D8C0467944097987
:100E300049008F4403041E3D536C7500E1E7584997
:100E4000625A521C6252584BE65AF7B247407F0032
:100E50005749C95B360A4E40E652218A09020818F2
:100E6000208290B20228D8D14D4825520420A07289
:100E7000D3E74B49625A531C63524A4EA25B12029B
:100E80001218A25398B20228C7D14748235A92B2E7
:100E900093427DD1228A002A7CD0255265520520BA
:100EA000A07244488242B8D3404801212154B4E79B
:100EB0003B49625A531C63523B4BE65AF7B24740D8
:100EC0007F003B49C95B360A4E40E652A073002AB8
:100ED000A3D1334825520120A0729EE78321C90087
:100EE00060542F49625A531C63522F4BE65AF7B293
:100EF000474078002E4F385A360A4640E652002ABC
:100F00008BD12848255265520220A07285E72749D7
:100F1000615C00291ED02249605A401C60522BE0BF
:100F20001F49625A521C62521E49635A1B0218180A
:100F3000605291B2022900D06FE71C49615C002920
:100F400006D11949615A80B2814201D100F070F98D
:100F5000A57262E71249625A531C6352124BE65A59
:100F6000F7B247407F00124BDB5B360A5E400E4B08
:100F7000E652A2189074605A218A80B2884200D04A
:100F80004BE708482552064825520620A07244E740
:100F9000A57242E700F04CF9A5723EE7B1010020CE
:100FA00012040000160400001404000019040000DC
:100FB0003E2C000801040000C1C00000FEE7FEE76F
:100FC00070470000B0B582B04B685A781B781B029E
:100FD0009C180D4B1B889C4211D30A4D2D88AC42A6
:100FE0000DD8D21AD2B2094B9A5C01230B8101AB06
:100FF0004B60012A00D002221A7000F0E7F90120AC
:1010000002B0B0BDA6080020A8080020AA08002051
:1010100070470000F0B585B01F480168491C0160A9
:101020001E480078012834D1E44CA089312801D829
:10103000401CA081E248205C00282AD0194966188B
:10104000002704E014367F1CC1B28F4221D23268DF
:10105000002AF7D0B1880029F4D0491EB1800904D4
:10106000F0D1B568F3682946194308D00493039575
:1010700000200190694620469047D148205C00211D
:101080003160C1B2491E8F42DCD1401ECC49605450
:10109000D8E705B0F0BDC046BC0800208C01002098
:1010A000B4010020AC0400007047000070B54C4B48
:1010B000C24AD458002C4ED04A4BD458002C4DD0A4
:1010C000494BD458002C4CD0484BD458002C4BD012
:1010D000474BD458002C4AD0464BD458002C49D00A
:1010E000454BD458002C48D0444BD458002C47D002
:1010F000434BD458002C46D0424BD458002C45D0FA
:10110000414BD458002C44D0404BD458002C43D0F1
:101110003F4BD458002C42D03E4BD458002C41D0E9
:101120003D4BD458002C40D03C4BD458002C3FD0E1
:101130003B4BD458002C3ED03A4BD458002C3DD0D9
:10114000394BD458002C3CD0384BD458002C46D1C5
:10115000D318132437E0D318002434E0D318012423
:1011600031E0D31802242EE0D31803242BE0D31847
:10117000042428E0D318052425E0D318062422E00F
:10118000D31807241FE0D31808241CE0D31809241F
:1011900019E0D3180A2416E0D3180B2413E0D3184F
:1011A0000C2410E0D3180D240DE0D3180E240AE00F
:1011B000D3180F2407E0D318102404E0D318112407
:1011C00001E0D3181224E5005519C726F600A855EA
:1011D00019607C48115CA14201D8611C115470BD9A
:1011E0003C060000440600004C06000054060000C7
:1011F0005C060000640600006C0600007406000037
:101200007C060000840600008C06000094060000A6
:101210009C060000A4060000AC060000B406000016
:10122000BC060000C4060000CC060000D406000086
:10123000F0B58BB000220692604B987B06A908702F
:101240000892188A08818320C000185C88700A926E
:10125000009209921846123007905948185C029083
:10126000002840D09521CD002846103005902C460E
:101270000C342A460A322946083104912E1D0121D8
:1012800011E0059F14361435143414370597411CAA
:10129000039A14321F4603460498143004900298AF
:1012A00083423B461FD2039208469A59002AE8D04F
:1012B000595D06AB1B789942404B059FE2D10190E6
:1012C00018590990D8590A9006A9184690473B4BDF
:1012D000099919510A99D951002852D13848185CF6
:1012E00002900198CEE700980A900990354C185D5D
:1012F000002823D0C721C9005D18012105E0385D11
:101300003B460835711C864218D20E466A68002A90
:10131000F7D006A989782B788B42284BF1D106A902
:1013200018461F4690470028E9D0032804D10098AA
:101330006860385DB04220D00BB0F0BD224C185D23
:101340000028F9D0DB21CD00012606E0385D3B46C0
:101350002D1D711C86420E46EED25A59002AF7D036
:1013600006A918461F4690470028EFD00328E3D16E
:1013700000987851385DB042DED1401E38550BB030
:10138000F0BD022813D00328D6D10098D8511851A7
:1013900098590028D0D0009898510948185C0199B4
:1013A0008842C9D1401E064958540BB0F0BD03987D
:1013B000185A049958520BB0F0BDC046B401002031
:1013C000EC060000ED060000EE060000F0B589B066
:1013D00001264E707C4BC518AB7A002B01D009B0AA
:1013E000F0BD0A46774BC11814784C700E70507AD5
:1013F0000002070A8F701389CB70907807900871EC
:101400000896C1266640F4B26400704E345BE0B2C8
:101410007840C02747407800305A240A44405C4056
:10142000E3B25B00F35ADCB2000A6040079C604004
:101430004000305A040A4C710C461B0A43408B7121
:101440000898A8720721296000272F8113896B60F3
:10145000002B00D1AEE0506800900028BFD00721DB
:10146000019403E0E719002B00D18CE08020441A9E
:101470009C4200D31C46A0B20028059473D003936D
:1014800006900098C219019841180323234006983A
:10149000401E03280497029301D2002037E00698EB
:1014A000C01A079000200892145C0C542F897C40CD
:1014B000E4B26400345B3F0A67402F810F181418B0
:1014C0000A46314666787E702B895E40F6B2760019
:1014D0008E5B1B0A73402B81A378BB702E897340EF
:1014E000DBB25B00CB5A360A5E402E810E461146B7
:1014F000089AE378FB702C896340DBB25B00F35AF7
:10150000240A5C402C81001D079B8342CCD1029FA2
:10151000002F23D0135C0B542C896340DBB25B009B
:10152000F35A240A5C402C81012F17D0431CD45C51
:10153000CC542B895C40E4B26400345B1B0A6340EA
:101540002B81022F0AD0801C125C0A542889424049
:10155000D1B24900715A000A484028812968049F85
:10156000039B059C0698091829601B1B802900D045
:1015700078E7802101981C4600F02AF82346059C54
:10158000002129606EE76868002812D008467F387D
:101590000128019C04D8204600F01AF80021296097
:1015A000687A60546018297A41702868811C296023
:1015B00000E0019C204600F00BF80020A87209B062
:1015C000F0BDC0461A0400009C0400003E2C000838
:1015D000F0B581B0494AD36F202B00D08AE00028B3
:1015E00000D187E00B0400D184E001231B03946841
:1015F0009C4213D11569C30701D0002D7AD08423F2
:101600000024D4505023D1522123D3673C4B1B6874
:1016100052269153002D0CD101460CE08423002466
:10162000D4505023D1522123D367354B1B68522409
:101630001153002104465225565B1068002E33D00A
:101640002F4EC7693F061DD43768FF1A2D2F4FD87C
:101650000768C7693F0615D43768FF1A2D2F47D88A
:101660000768C7693F060DD43768FF1A2D2F3FD88A
:101670000768C7693F0605D43768FF1A2D2F37D88A
:101680000768DEE7002C03D027780785641C05E097
:101690000C881C4F3C400485891C0024575B7F1E2E
:1016A0005753575B002FCCD1C169490620D4144948
:1016B0000C68E41A2D2C1BD80468C469640617D47E
:1016C0000C68E41A2D2C13D80468C46964060FD47E
:1016D0000C68E41A2D2C0BD80468C469640607D47E
:1016E0000C68E41A2D2C03D80468C4696406DFD59D
:1016F0002020D067FFF7F4FA01B0F0BD040100200C
:10170000BC080020FF010000F0B588B06E480068FA
:10171000C16802250A462A405442544103691A46C8
:1017200006952A405642564126438025EA430792B1
:10173000002E06D1079A7E3202610022624C227787
:101740008269012204240C40674267415C07164607
:1017500000D53E46002E06D1079C7C34046100244F
:10176000594E3477846908240C40674267411C074E
:10177000164600D53E46002E06D1079C78340461FB
:101780000024514E3477C46910240C4067426741ED
:10179000DC06164600D53E46002E06D1079C703466
:1017A00004610024484E3477C46901270C463C404C
:1017B00066426641DC07144600D03446002C59D1FD
:1017C000079C7F340461414CA04253D1404E069C9B
:1017D00034613761FE033F4C019626617E0300961B
:1017E00026617E023C4C029626603E0203962660ED
:1017F0002560402604962660384C2478032C0594F6
:1018000014D8C0467C4424796400A7440105080B21
:10181000069C2F4E346008E02D4C276005E02D4CCF
:10182000019E01E02B4C009E2660059C2C4E345DF1
:10183000002C294F01D0029C3C61059C241DE4B280
:10184000345D002C01D0039C3C61059C0834E4B25B
:10185000345D002C00D03D61059C0C34E4B2345D55
:10186000002C01D0049C3C61059C641C032626408E
:101870001A4C26700D406E426E411C06144600D56F
:101880003446002C01D1079C046140240C40654281
:1018900065415C06144600D52C46002C02D1079CFD
:1018A00040340461202421404D424D41990603D427
:1018B000002A04D008B0F0BD2A46002AFAD10799C0
:1018C0006031016108B0F0BDBC0000200020004084
:1018D00018140048180800481804004808000020A0
:1018E0009801002080B5406A0146523100220A81E9
:1018F00052214252FFF77CF980BD70B580214258D9
:101900000168222A0FD102465A325388898C194025
:10191000436D19801188491E1180991C41651188F9
:10192000002905D070BD8869082202438A6170BD14
:1019300002468032EFF31083012181F310880924DD
:10194000640105682E68A6432E6083F31088EFF3C8
:10195000108381F310880468A5688D43A56083F324
:1019600010882023136000224266826603685B6849
:101970001B020AD5EFF3108381F310888C060568EB
:101980002E68A6432E6083F31088036E012B11D1BD
:101990000266EFF3108281F3108803681C6810213F
:1019A0008C431C6082F310880068C269D206B9D5E6
:1019B000016270BDFFF716FA70BD70B58021425804
:1019C0000168222A10D102465A325388898C194064
:1019D000436D19701188491E1180416D491C416584
:1019E0001188002905D070BD8869082202438A61E8
:1019F00070BD02468032EFF31083012181F310881D
:101A00000924640105682E68A6432E6083F31088BC
:101A1000EFF3108381F310880468A5688D43A560F7
:101A200083F31088202313600022426682660368D5
:101A30005B681B020AD5EFF3108381F310888C06D4
:101A400005682E68A6432E6083F31088036E012B71
:101A500011D10266EFF3108281F3108803681C68CD
:101A600010218C431C6082F310880068C269D20682
:101A7000B9D5016270BDFFF7B5F970BDF0B582B0A0
:101A80000568EB690B4000268B4202D1304602B05C
:101A9000F0BD0190783000900120C702384C03E07F
:101AA000EB690B408B42F1D023689B1A5B0E32D15D
:101AB0002B685B07F4D5EB691B072FD4EB693B421E
:101AC000EED02F62EFF31080012282F310880921FB
:101AD0004901019E33681C688C431C6080F31088A8
:101AE000EFF3108082F3108831688B6893438B602A
:101AF00080F31088336E03202021012B36D1EFF3C1
:101B0000108382F31088326814681025AC43146087
:101B100083F310882AE0032002B0F0BD0821296277
:101B2000EFF3108280F3108809235B01019E346873
:101B300025689D43256082F31088EFF3108280F3BF
:101B4000108833689C6884439C6082F31088326EEE
:101B5000012A0BD1EFF31082012080F31088336843
:101B60001C681025AC431C6082F31088009B202267
:101B70009A6000223266B2661A70D96002B0F0BD77
:101B8000BC080020F0B587B0C5480668F36937681F
:101B90002021384603910F407C427C41012106916F
:101BA000CA0215462F351D40203D691E8D41254333
:101BB0000496B5684AD011460F3105930B4203468F
:101BC00006D0B849194001263540691800D082E096
:101BD0001026194631404D424D41059A114631407B
:101BE0004F424F41E449096E0129069C00D13C4611
:101BF000002C069C049800D12C46002C2FD080216C
:101C00001940484248411106069C00D50446002C64
:101C100000D1E6E0402003405C425C41510600D523
:101C2000069406990029D44C00D036E1EFF31081D8
:101C3000012282F31088226813688343136081F3C2
:101C400010880020E0660398E06726E1CA48816EAC
:101C5000002900D121E1C848884707B0F0BD0662DD
:101C60008068400600D5C1E05A22C34DA85A5821C9
:101C7000695AAA5A002A00D10FE1814200D10CE131
:101C8000EFF31081012080F31088092252012B68A4
:101C90001C6894431C6081F31088EFF3108180F37B
:101CA00010882A6893688343936081F310888021A9
:101CB000039A6A500021A9662966EFF3108180F328
:101CC000108828680268B243026081F310880220FD
:101CD000686607B0F0BD0192310219404C424C4198
:101CE0000599C907069800D0204600280296049856
:101CF00007D106628421A04A5458029E34435450AE
:101D0000029E6C426C4105998907069900D52146CF
:101D100000290AD1022101628421974A5458009473
:101D20000424009E34435450029E6C426C41059939
:101D30004907069900D52146002908D104210162EE
:101D400084218D4E7258022414437450029E3D43E8
:101D50006C426C4105990907069D00D52546002D6A
:101D600007D1082101628424834E35590D43355132
:101D7000029EB1060B405C425C410599019A1142FA
:101D8000069B00D02346002B7B4C06D101990162B3
:101D900084216358039D2B43635084256159002996
:101DA00000D17AE00399059A0A407B427B41002AE0
:101DB00000D006930699002905D1A16E002902D012
:101DC000204688472068615928220A4081684020BF
:101DD0000140891868D1FEF70BFF0020605107B061
:101DE000F0BD6548C16E002957D034E7624F796F66
:101DF0000868426890B200284FD05823FB5A984296
:101E00004BD25A203A528969202900D1A9E0EFF338
:101E10001082012181F31088594B20333C682568DA
:101E20001D40256082F31088EFF3108281F3108843
:101E30003B689C688C439C6082F31088EFF31082AF
:101E400081F310883B689C684025AC439C6082F31A
:101E500010888022039BBB5000223A66EFF3108368
:101E600081F310883C682568B543256083F31088AA
:101E70007D6F2B4620335C78022C6ED12C6826684F
:101E80000E27BE43266026688E432660EC6B2D6CC1
:101E90000E46AE406660597061E007B0F0BDC046C6
:101EA0000401002020010004EFF3108186F3108864
:101EB0000922520123681C6894431C602E4C81F354
:101EC0001088EFF3108186F3108822689368B3437B
:101ED000936081F31088216E01290BD1EFF31081FB
:101EE00086F31088226813681024A343224C1360E1
:101EF00081F310888021039A625000212166A16637
:101F000022689268520624D5EFF3108286F3108877
:101F1000236825469C6884439C6082F31088686F20
:101F2000002816D002462032144B43635378022B0C
:101F30001CD103681C680E25AC431C601C68B443AC
:101F40001C60C36B046C3546A5405D601170567013
:101F50000EE0FEF74DFE07B0F0BD0421A9631A7034
:101F6000054F02217966385A07B0F0BD042181631C
:101F7000FFF7B8FC07B0F0BD04010020E518000829
:101F8000DFFEFFFF00B597B0C54A10681021109121
:101F9000084310607D20C400C24800682146FEF757
:101FA000B1F8401E010EC04D10D1C0494860C04874
:101FB00002682A4003239B07D218026000228A602D
:101FC00007220A6001682940C9180160B94FB86941
:101FD00001263043B861B869304012901298310739
:101FE000F8690843F861F8690F9108401290129857
:101FF00078680007800F07D078680C210140082915
:102000002ED17868C0032BD43868396880231943EF
:10201000782081433960796A31437962A64D296815
:102020007A6A920741D42A68521A022A00D9ECE04F
:102030007A6A920739D42A68521A022A00D9E4E04F
:102040007A6A920731D42A68521A022A00D9DCE04F
:102050007A6A920729D42A68521A022AE0D9D4E06F
:10206000386830433860944801683A689207CCD4A5
:102070000268521A022A00D9C7E03A689207C4D40B
:102080000268521A022A00D9BFE03A689207BCD40B
:102090000268521A022A00D9B7E03A689207B4D40B
:1020A0000268521A022AE0D9AFE0796B04220D923D
:1020B00011437963796B3143796329687A6B9207AD
:1020C0001CD42A68521A022A00D99EE07A6B920721
:1020D00014D42A68521A022A00D996E07A6B920721
:1020E0000CD42A68521A022A00D98EE07A6B920721
:1020F00004D42A68521A022AE0D986E0796B19437F
:102100008143796378680C210E91084008282BD10F
:102110007868F96AC20378D40F22114075D191040E
:1021200008400521C90488426FD10A935C480068C1
:10213000C00707D15A4A1068012101431160106895
:10214000C0070DD007200890000279680C90014369
:1021500079607968F022914379603968890158D4AF
:10216000EFF3108072B6FEE73006396881433960BC
:10217000700629683A68024219D02A68521A022A5F
:1021800043D83A68024212D02A68521A022A3CD82E
:102190003A6802420BD02A68521A022A35D83A68A5
:1021A000024204D02A68521A022AE3D92DE0F96AC1
:1021B0000F229143F9623D2109047A688A4305217F
:1021C000C904511879603849491C3A680A433A6091
:1021D00029683A680242A8D12A68521A022A14D8F9
:1021E0003A680242A1D12A68521A022A0DD83A68E6
:1021F00002429AD12A68521A022A06D83A68024242
:1022000093D12A68521A022AE3D9EFF3108072B6EA
:10221000FEE77968022206921143B143796029688A
:10222000264A7B680E980340082B20D02B685B1A47
:10223000934295D87B680E980340082B17D02B68E3
:102240005B1A93428CD87B680E980340082B0ED003
:102250002B685B1A934200D982E77B680E98034093
:10226000082B04D02B685B1A9342DAD978E70C4824
:10227000016879680C988143796079680A460E98FC
:10228000024030040E4B082A039029D18A02120F13
:102290000C4B9B5CFA6A014218D10B481FE0C04608
:1022A0000020024000000020FFFFFF0010E000E0DF
:1022B00020ED00E000100240BC0800208813000060
:1022C00000127A003E2E000800093D000F210A404E
:1022D000EC49895CEC480C93FDF714FF0C9B4343DD
:1022E00078680006000FE9A1085CC340EB48036072
:1022F00018462146FDF706FF401EE94CA04210D8C3
:10230000E8494860E8480268224003239B07D21846
:10231000026000228A60089A0A6001682140C91898
:10232000016003200590C043396B01403963386B6D
:1023300010998843386300241694F00479690143A6
:1023400079617969014011911198B005796901436A
:102350007961796901401191119871047869084394
:10236000786178690191084011901198B0047969F9
:102370000143796179690140119111980520430366
:10238000CA498B620846CA49C32204920A6003996B
:10239000091F0291C74A1160992109020791C64A93
:1023A00091610B94159414941396129312AC2146D8
:1023B0000994FEF701F814960B981390B0030C9053
:1023C0001290BA482146FDF7F7FF0B9C1594149420
:1023D000139604981290B6482838099C2146FDF7B8
:1023E000EBFF14960B981390E0201290B24810382F
:1023F00004902146FDF7E0FF14960B981390059882
:102400001290AC4C283C20460999FDF7D5FF0B985B
:10241000159014901396029812902046099C21461C
:10242000FDF7CAFF0B981590149013960798129019
:1024300004982146FDF7C0FF14960B9C1394059851
:102440004003129004980999FDF7B6FF24239B4896
:1024500022460446C25486620262FF21C231984875
:1024600005C422606260A6600D98E0602261079159
:102470006161083CA06B002821D134210020605408
:10248000E0631690159001214902BA690A43BA61C6
:10249000BA690A40119211997969019A11437961D7
:1024A00079691140119114900598139011201290A0
:1024B000119812A904981F46FDF77EFF3B4621465E
:1024C0003831A06BC00600D58EE0206882685207C4
:1024D00000D589E0109381214900A26B8A43911CA9
:1024E000A1638168059A1140012905D10168C907D6
:1024F0000FD1C16809040CD4C168182291436268E5
:10250000A3680B43C3600599890703698B43134391
:102510000361C1686B4A0A40C260A16A491E4A1E33
:10252000914109030991227E9203637EDB031343E9
:10253000A27E57031F43E36821693B43099F3B4346
:10254000891E4F424F41BF001F431099615C4900F3
:102550003943E37E012B0CD1002A08D0A26B202343
:102560001343A363E26B01231343E36301E0039A84
:102570001143E269079B9A4202D0236A194311432F
:10258000C2680A43C260E26A531E072B34D2436911
:10259000089FBB4343613A40436913434361C068AA
:1025A000494A02408A4216D132030B9EE663A06B71
:1025B0000127384306998843A06314460F98149066
:1025C0001392129612A8FDF727FE002818D0EFF3F9
:1025D000108072B6FEE7A06B10210143069881437C
:1025E000A1633C34214610960868109A1043086095
:1025F000EFF3108072B6FEE70F9B9A42C7D0CEE78A
:1026000010970D98129012A8FDF706FE002803D02F
:10261000EFF3108072B6FEE72C482D492D4A026078
:10262000416086601099C160066146618661C6613D
:102630000662FDF7D9FFFDF797FF002803D0EFF3FF
:10264000108072B6FEE70F94FDF7AEFF002803D0AE
:10265000EFF3108072B6FEE71F482049066246621B
:10266000E122520246C0066046600E998160C66053
:102670000661FEF737F8002832D0EFF3108072B60B
:10268000FEE7C0464E2E000800127A00000000004F
:1026900000000000010203040607080900000020F2
:1026A000FFFFFF0010E000E020ED00E00008004820
:1026B0002814004828040048100000480C0000209E
:1026C000002401401902FEFFE7FF3F83680000205D
:1026D0000A021000005400400401002000380140AC
:1026E000D448109981610B9CC46004610471D24983
:1026F0000160FDF72DFED1488461D149D14A0260C5
:10270000416084600D99C1600461FEF7C3F9FEF772
:102710004DFACD4C207800280FD1CC480830DD216F
:10272000C900FDF715FD109820700220C849FEF77A
:10273000BDFC0320C749FEF7B9FCFEF7D1FA10989B
:10274000C1020E9141030991C00308900D9EC24C35
:10275000C24F01E0064610600B9BC1480370224641
:10276000183A116889071946034601D420211970C7
:102770001268D20702D11022114319703A6812066A
:1027800002D40822114319703A68520601D4314329
:102790001970B44E3A68920602D406980143197033
:1027A000B14802690C98024203D110980143197094
:1027B00001E0002905D00901AC4801800F39AC487F
:1027C000018029683C683A68AA4803780C9804425A
:1027D0004FD1002BA84F00D083E0A84B1098187061
:1027E000A44B18700023A64C23703C78641C3C70EA
:1027F000E4B2102C00D33B703B78F35CA14803702B
:10280000FC4BCB18A0480360A04801603378FB481C
:10281000037073784370B3788370F378C37033793F
:10282000037173794371B3798371F379C371337A27
:102830000372737A4372B37A8372F37AC372337B0F
:102840000373737B4373B37B8373F37BC3732C6812
:102850002B681B1BC82B44D82B681B1BC82B40D8CC
:102860002B681B1BC82B3CD82B681B1BC92BEFD319
:1028700037E0002BE44F34D00023DF4C23702C686A
:102880002B681B1BC82B0BD82B681B1BC82B07D80E
:102890002B681B1BC82B03D82B681B1BC92BEFD322
:1028A0003378D648037073784370B3788370F378C5
:1028B000C3703379037173794371B3798371F37999
:1028C000C371337A0372737A4372B37A8372F37A81
:1028D000C372337B0373737B4373B37B8373F37B69
:1028E000C373099B1A40CC480378C54C2478002C4C
:1028F0004CD0002A4AD1002BC44C42D1C548059186
:1029000001603A78B35C10994B40B3543A78B25CAA
:102910002270C14801700022BA4B1A702A682B68D5
:102920009B1AC82B0BD82B689B1AC82B07D82B686F
:102930009B1AC82B03D82B689B1AC92BEFD332786C
:10294000AE48027072784270B2788270F278C270CB
:102950003279027172794271B2798271F279C271FF
:10296000327A0272727A4272B27A8272F27AC272E7
:10297000327B0273727B4273B27B8273F27BC273CF
:1029800005999C4A8918A248016019E0511E8A41A4
:102990001A40012A9D4C13D100219F4801702968DB
:1029A0002A68521AC82A0BD82A68521AC82A07D885
:1029B0002A68521AC82A03D82A68521AC92AEFD399
:1029C000296893480268914262D90F223A70002226
:1029D0008B4B1A702270327888480270727842707D
:1029E000B2788270F278C270327902717279427173
:1029F000B2798271F279C271327A0272727A42725B
:102A0000B27A8272F27AC272327B0273727B427342
:102A1000B27B8273F27BC2733A78B75CFA233222BC
:102A2000012F1C4600D01446012F00D01A467748CB
:102A30003EE0C0464C00002000300240BC000020B8
:102A40007FBB0000002000408C010020B40100206A
:102A5000C50F00086901000828040048100000485C
:102A6000B0010020AA08002000080048A6080020A5
:102A7000A80800200A00002004000020A80100206F
:102A80000B000020A4080020AC01002090010020D1
:102A90003A78B75CFA233222012F1C4600D0144644
:102AA000012F00D01A46574B1B78002B574808D1EE
:102AB000554B1B78F35C0370524B109F1F70574BA4
:102AC00019600378002B00D0224654480368CB1AC3
:102AD00093424E480CD34C4A1278484CA35C109F4A
:102AE0007B40A35402785342534103704B4801602A
:102AF00032783E4801461039002A024600D00A4684
:102B0000202313607278002A024600D00A46102360
:102B10001360B278002A024600D00A4608241460E6
:102B2000F3781822002B134600D023460898304F24
:102B3000F8502D480346103B3779002F074600D048
:102B40001F460A9838607779002F274F00D01F461C
:102B500040233B60B379002B134600D02346244F1B
:102B60000F98F850F379002B134600D023460E98A7
:102B7000F850337A002B00D02246079BC13BBB5054
:102B8000727A002A194C224600D00A460898106032
:102B9000B27A002A22460D9800D00A460C9B136098
:102BA000F27A002A224600D00A46099B1360327B43
:102BB000002A224600D00A460F9B1360727B002A2F
:102BC000224600D00A460E9B1360B27B002A2246A2
:102BD00000D00A46109B9B021360F27B002A22461B
:102BE00000D1B7E50A46B5E5281400482804004896
:102BF00010000048102700000A0000209801002063
:102C0000A80100200B00002004000020A4080020E0
:102C1000AC01002090010020090000209401002058
:102C200002E008C8121F08C1002AFAD17047704795
:102C3000002001E001C1121F002AFBD170470000F3
:102C4000C1C081C1400101C3C003800241C201C6AD
:102C5000C006800741C70005C1C581C4400401CC3E
:102C6000C00C800D41CD000FC1CF81CE400E000AB7
:102C7000C1CA81CB400B01C9C009800841C801D835
:102C8000C018801941D9001BC1DB81DA401A001E2F
:102C9000C1DE81DF401F01DDC01D801C41DC00144E
:102CA000C1D481D5401501D7C017801641D601D2B5
:102CB000C012801341D30011C1D181D0401001F066
:102CC000C030803141F10033C1F381F2403200362F
:102CD000C1F681F7403701F5C035803441F4003C3E
:102CE000C1FC81FD403D01FFC03F803E41FE01FA35
:102CF000C03A803B41FB0039C1F981F840380028D7
:102D0000C1E881E9402901EBC02B802A41EA01EEAC
:102D1000C02E802F41EF002DC1ED81EC402C01E44D
:102D2000C024802541E50027C1E781E64026002236
:102D3000C1E281E3402301E1C021802041E001A004
:102D4000C060806141A10063C1A381A240620066AE
:102D5000C1A681A7406701A5C065806441A4006C3D
:102D6000C1AC81AD406D01AFC06F806E41AE01AAB4
:102D7000C06A806B41AB0069C1A981A84068007836
:102D8000C1B881B9407901BBC07B807A41BA01BE2C
:102D9000C07E807F41BF007DC1BD81BC407C01B44D
:102DA000C074807541B50077C1B781B640760072B6
:102DB000C1B281B3407301B1C071807041B00050A5
:102DC000C190819140510193C0538052419201962C
:102DD000C056805741970055C19581944054019C3D
:102DE000C05C805D419D005FC19F819E405E005A36
:102DF000C19A819B405B0199C059805841980188D4
:102E0000C04880494189004BC18B818A404A004EAD
:102E1000C18E818F404F018DC04D804C418C00444C
:102E2000C184818540450187C04780464186018233
:102E3000C042804341830041C18181804040020300
:102E40000405060708090A0B0C0D0E0F10100102ED
:102E5000030405060708090A0B0C0D0E0F100000ED
:102E60000000010203040000882E0008000000207A
:102E700008000000202C0008902E00080800002008
:102E8000B80C0000302C000800127A000F0000007F
:04000005080000B13E
:00000001FF
