:020000040800F2
:10000000C00C0020C5000008B7090008B5090008A9
:1000100000000000000000000000000000000000E0
:10002000000000000000000000000000BB09000804
:100030000000000000000000B9090008BD09000828
:10004000D700000800000000D7000008D700000813
:10005000D7000008D7000008D7000008D700000824
:1000600000000000D7000008D7000008D7000008F3
:10007000D7000008D7000008D700000800000000E3
:10008000D70000080000000000000000C50D0008B7
:1000900000000000D7000008D7000008D7000008C3
:1000A00000000000D700000800000000B1110008A7
:1000B0000348854600F014F8004800476915000819
:1000C000C00C00200448804704480047FEE7FEE7D4
:1000D000FEE7FEE7FEE7FEE7150A0008B1000008AC
:1000E000064C0125064E05E0E36807CC2B430C3C8B
:1000F00098471034B442F7D3FFF7DEFF9426000888
:10010000B426000870B50446002903D00020202240
:10011000012310E0002801D00020C043C046C046A3
:100120000DE02546D5408D4205D30D469540641B14
:100130001D46954040191546521E002DF1DC214602
:1001400070BDD2B201E00270401C491EFBD2704764
:100150000022F6E710B513460A4604461946FFF793
:10016000F0FF204610BD0000F8B54B681A785C78A7
:10017000944B9D891602361919D0DF79002F16D0BD
:100180009F89BE4213D3DF89BE4210D8661B6D46DD
:100190006C702A70F2B29A183023D25C4D6003233F
:1001A0000B81012A00D00222AA7000F0F1FC01208C
:1001B000F8BDC0467CB54A6853781278814CA58951
:1001C0001502ED1814D0E679002E11D0A689B5429B
:1001D0000ED3E689B5420BD80125657201AC062520
:1001E000A5706370227003220A814C6000F0D0FC7D
:1001F00001207CBDF8B50C46054648680378417877
:10020000704EB2891B025B182FD0F779002F2CD0CB
:10021000B789BB4229D3F789BB4226D8891A80788F
:10022000CFB2012805D0022807D1F01930210022D1
:1002300002E0F01930210122425402F00BF961680A
:100240000A7868460270497841700621C170F11938
:100250003022895C042222816060012900D00221C1
:1002600081702846214600F093FC0120F8BDC0466D
:10027000EFF3108072B600F099F90000FEB500248B
:1002800002943422364FB95C012901D10220FEBD0F
:100290003B689968490716D40192066841680125B0
:1002A0002F46B7402F4A914213D1986AB8439862BB
:1002B0003046A84310282046294F019A3CD1102EE1
:1002C0001AD02C4819E0B86B20210143B9630120F2
:1002D00032E0996A394399622149CF6A791E072928
:1002E000019A2BD23046A843102820461C4F23D118
:1002F000102E09D0A80508E01D481B490A680240D5
:100300000A602046019A17E0E80517490A68024387
:100310000A60102E2046019A0ED1AA48406813495F
:10032000FFF7F0FE0A214143029102980028E8D02D
:100330000298401E0290F8E7BC54FEBD29078F4288
:10034000D0D059690727394080688842CAD0596996
:10035000B94359613840596901435961C2E7C04600
:1003600064000020011000000827014040420F00F7
:10037000FFFF7FFFFFFFBFFF10B5014620314A7826
:10038000022A10D1026813680E24A3431360136875
:100390000124A3431360C26B006C23468340536067
:1003A0004C70002002E004228263012000220A70C7
:1003B00010BD0000401C0349CA69CB699B1A8342E7
:1003C000FBD3704708000020F0B58BB004905F4A63
:1003D000904201D0052000E00320009000273C4619
:1003E0003A4605910B681846D04000D1ACE0012098
:1003F0000546099295402B4000D1A0E00193029060
:10040000089403242046B840C3434E683246224035
:10041000501E012806970793039614D8049FB868C6
:100420001840CC6806998C400443BC60F006C00FAD
:10043000099988407C68AC433D46069F04436C6044
:10044000029B019E07E0032A049D029B019E02D1AC
:100450002246039C1EE0E8680799084005998C68CD
:10046000BC400443EC60022A039C13D11C20089971
:1004700008400F2282400999CC08A4002C19256A53
:10048000954305990A6982402A43049D22624C687B
:1004900003222240BA402868079908401043286088
:1004A000A003800F0599089C49D02A4A1068184378
:1004B0001060106818400A900C2222400F209040D3
:1004C0000324099DA5430A9C234FEC598443ED194D
:1004D0000920C006049F874209D02048874207D0E0
:1004E0001F488742009B069F03D1022301E000239F
:1004F000069F934023432B60154880684A68D302C7
:1005000001D5304300E0B043089C114B9860D86897
:10051000930201D5304300E0B0430D4BD8605868DA
:10052000930301D5304300E0B043094B586018688D
:10053000D20301D5304300E0B043054A1060BF1C30
:10054000241D099A521C4DE70BB0F0BD000C004869
:100550000004014018100240080001400004004857
:100560000008004810B5174840687D21C900FFF712
:10057000C9FD411E080E11D109480A4A51600A49B5
:100580000B6803400324A4071B190B60002393602E
:10059000072313600A6802401019086010BDC046A6
:1005A000FFFFFF0010E000E020ED00E000F06AFF38
:1005B00004484068044909684905490F03A2515C91
:1005C000C8407047000000200410024000000000F6
:1005D0000102030410B50D490A680C2313400C48AE
:1005E000082B08D193021B0F0AA4E45C896AD2038A
:1005F00003D4104807E0044606E00F22114009A288
:10060000515CFFF77FFD4443204610BD04100240BB
:1006100000127A0002030405060708090A0B0C0DF4
:100620000E0F10100102030405060708090A0B0C3F
:100630000D0E0F1000093D00F8B56A4C216801202D
:10064000086202220A6204220A6210260E6208254B
:100650000D62EFF3108180F31088092252012368A4
:100660001F6897431F6081F31088EFF3108180F3B8
:100670001088226893688343936081F31088216E09
:10068000012909D1EFF3108180F3108822681368E3
:10069000B343136081F310882168896849061AD52D
:1006A000EFF3108180F310882068826840239A431A
:1006B000826081F31088606F00280CD000214163B4
:1006C000FFF75AFE002806D0606F806B202802D109
:1006D000842026500CE05A200021215220680F224D
:1006E000026282692A438261802020222250216690
:1006F00000F002F8F8BDC046F8B580233948C1586B
:1007000020290AD1856801210A03954206D104698E
:10071000002C03D19F4CE40700D0F8BD00240466F0
:100720000668766836020DD5EFF31085009581F3E3
:1007300010888E0607683D6835433D60009D85F34F
:10074000108885685A26815358268153914E4665F4
:100750008466002D07D0954225460AD10569002DF3
:1007600006D1214D05E00569002D01D07F2500E06F
:10077000FF25842684515C2405532224C450EFF3C2
:10078000108381F310880468A5680D43A56083F386
:10079000108803698468944204D1002B13D0134A53
:1007A000826603E0114A8266002B0ED0EFF31082BE
:1007B00081F3108809214901006803680B43036035
:1007C00082F31088F8BD0A4A8266EFF3108281F343
:1007D00010880068016820230B43036082F31088AF
:1007E000F8BDC04640010020FF0100008510000850
:1007F000C50F0008F8B5E14CA17A66480078A289D7
:10080000322A14D3002901D00021A1720021A18134
:10081000012809D16348002121546148644A2252C9
:100820005D4821520320A072FFF766FFF8BD002546
:10083000A5810629F8D8C0467944097949008F4432
:1008400003041D3C51697200E2E75349625A521C8D
:100850006252534BE65AF7B247407F005249C95B98
:10086000360A4E40E652218A09020818208290B2C8
:100870000228D9D1484825520420D4E74649625A73
:10088000531C6352454EA25B12021218A25398B237
:100890000228C9D14248235A92B293425BD1228A9C
:1008A000002A56D0255265520520A0723F48824248
:1008B000BAD33C4801212154B6E73749625A531C48
:1008C0006352374BE65AF7B247407F003649C95B5F
:1008D000360A4E40E652A073002AA5D12E48255272
:1008E0000120A0E78321C90060542B49625A531CA0
:1008F00063522B4BE65AF7B2474078002A4F385ADA
:10090000360A4640E652002A8ED1244825526552C6
:10091000022088E72349615C00291ED01E49605AE5
:10092000401C60522BE01C49625A521C62521B4907
:10093000635A1B021818605291B2022900D073E763
:100940001849615C002906D11549615A80B281427B
:1009500001D100F079F8A57266E70F49625A531C7D
:1009600063520F4BE65AF7B247407F00DE4BDB5B2A
:10097000360A5E400A4BE652A2189074605A218AE9
:1009800080B2884200D04FE70448255202482552E1
:10099000062048E7C80100201204000016040000E9
:1009A000140400001904000092240008010400004F
:1009B000C1C00000FEE7FEE770477047F8B5144875
:1009C000C169491CC161007A01281FD16B4DA889FA
:1009D000312801D8401CA881694EA85D9521C90025
:1009E0006C180027874211D2616800290BD0218939
:1009F000002908D0491E2181090404D1F8B22146FA
:100A000000F04EFDA85D14347F1CEBE7F8BDC04636
:100A10000800002070470000B0B5C722D300574A35
:100A2000D4180023142B0ED06568002D02D0083492
:100A30005B1CF7E7207061605248145CD9B28C42AD
:100A400001D8491C1154B0BDF0B589B004AD1421D2
:100A50002846FFF77DFB494FB87B28708320C000F4
:100A6000385CA870388A288138461230059044488E
:100A7000385C00263546854225D2BC194349625868
:100A8000002A1DD09521C900631804A90978039391
:100A90001B788B4214D102954B2000010190251840
:100AA0006868A9680790089104A938469047079993
:100AB000089A6960AA60002824D13148385C029DF8
:100AC00014366D1CD7E70026089607962D48395C2A
:100AD000C720C0003D463F18C8B286421AD27A6885
:100AE000002A0CD004A880783B78834207D104A95F
:100AF0002C46284690472349695C002820D10837B6
:100B0000761CE9E7019903282DD0022833D16888A3
:100B1000605230E01C48295CDB20C7000026C8B2C8
:100B2000864228D2EA59002A07D02C4604A9284632
:100B300090471549695C00280BD13F1D761CEEE7F4
:100B4000032818D100207860481E864213D10D4931
:100B500007E003280FD10020E851481E86420AD141
:100B60000949685407E000206860A8600298C0B294
:100B7000039900F095FC09B0F0BDC046CC010020FF
:100B8000EC060000ED060000EE060000AC040000DC
:100B9000F0B585B001224A70514BC518AB7A002BD5
:100BA00000D098E04D4BC418AA7204910B78637082
:100BB000009422704B4C00190390C1245C40E3B2B6
:100BC0005B004948C45AC02363401646D4431F0AF9
:100BD000002C10D00398021904980089F1B2C900C2
:100BE000C84090705840C0B240003F490B5A7B400B
:100BF000641C761EEBE7049CA078009A1071D9B2B1
:100C00001346414048003849085A47409771000A46
:100C100050710721296000222A8120896860676855
:100C2000002801D0002F56D00497002839D0044660
:100C30008020401A0394A04200D303980292BA186D
:100C40005B1881B20191002913D014781C702F8990
:100C50007C40E4B264002E4605462348045B2846E7
:100C600035463F0A67403781049F491E521C5B1C72
:100C7000E9E72968019A89182960029A8218039B7A
:100C8000181A8029009BD0D18021074618461446A7
:100C900000F02CF83846049F2246009B0021296072
:100CA000C3E76868002811D008467F38012805D8B6
:100CB000184600F01BF8009B00212960687A585400
:100CC0005818297A41702868811C2960184600F05C
:100CD0000DF80020A87205B0F0BDC0461A0400004F
:100CE0009C0400001C04000092240008FEB50E467F
:100CF0000446304840683049FFF704FA7D21090175
:100D0000414302910298411E0291002801D000BF88
:100D1000F8E72A4DE86F202848D1002C46D030044F
:100D200044D0A96801200003814206D12969002925
:100D3000014602D1E107014638D184230022EA505E
:100D40005023EE522123EB677C4BDB690193522742
:100D5000EE53414028690843264600D01646002835
:100D600000D10446E85B002818D080212D232846B6
:100D7000019A00F0E9F9002816D12868002C03D068
:100D800021780185641C05E031880D4A11400185F8
:100D9000B61C0024E85B401EE853E3E70748402107
:100DA0002D23019A00F0D0F92020E867FFF7A4FC7A
:100DB000FEBDC04600000020002D31014001002092
:100DC000FF010000FFB55B4D2868C2688026F44330
:100DD0000369990707D5910705D521467E31016141
:100DE000002129778169590707D5510705D5214683
:100DF0007C310161002129778169190707D5110725
:100E000005D521467831016100212977C169D906CC
:100E100007D5D10605D5214670310161002129771A
:100E2000C169D90772D0D10770D021467F310161E5
:100E3000414988426AD10394404DA97A012922D1BF
:100E40006978491C6970C9B214291CD3029600261E
:100E50006E702027302F0DD0EE557F1CFAE7BF1B98
:100E600079B2002900D5103779B2691820270124FA
:100E7000CC55761C2F78F1B20429F0D3791C0F26BB
:100E80000E402E70029E2E49022402940C6101270E
:100E90000F61FC032B4901940C617C0300940C61ED
:100EA0007902294C216039022160266040212160AD
:100EB000A978032912D8C0467944097949008F449A
:100EC0000104070A1E49029C07E01D490F6005E066
:100ED0001C49019C01E01B49009C0C6000241BA7DD
:100EE000A978042C0DD0A6008919C9B2691820264A
:100EF000895D002902D03988134E3161BF1C641C02
:100F0000EEE7491C03240C40AC70039C190602D583
:100F1000110600D50461590604D5510602D52146B3
:100F200040310161990603D5910601D56034046111
:100F3000FFBDC046F800002000200040080000204F
:100F4000181400481808004818040048000200015E
:100F50008000400080B5406A0146523100220A817B
:100F600052214252FFF768FB80BDB0B5EFF310820B
:100F7000012181F3108809235B01046825689D43E2
:100F8000256082F31088EFF3108281F310880368E4
:100F90009C688C439C6082F31088026E012A0AD1FF
:100FA000EFF3108281F3108801680B681024A343CB
:100FB0000B6082F31088802120224250002181663C
:100FC0000166B0BD70B5802142580168222A0FD158
:100FD00002465A325388898C1940436D1980118812
:100FE000491E1180991C41651188002905D070BDEA
:100FF0008869082202438A6170BD02468032EFF39D
:101000001083012181F310880924640105682E688A
:10101000A6432E6083F31088EFF3108381F31088CA
:101020000468A5688D43A56083F3108820231360AE
:1010300000224266826603685B681B020AD5EFF3F2
:10104000108381F310888C0605682E68A6432E60F5
:1010500083F31088036E012B11D10266EFF3108227
:1010600081F3108803681C6810218C431C6082F394
:1010700010880068C269D206B9D5016270BDFFF759
:10108000B9FB70BD70B5802142580168222A10D189
:1010900002465A325388898C1940436D1970118861
:1010A000491E1180416D491C41651188002905D0F8
:1010B00070BD8869082202438A6170BD0246803291
:1010C000EFF31083012181F310880924640105687E
:1010D0002E68A6432E6083F31088EFF3108381F30C
:1010E00010880468A5688D43A56083F310882023C9
:1010F000136000224266826603685B681B020AD5A1
:10110000EFF3108381F310888C0605682E68A643E0
:101110002E6083F31088036E012B11D10266EFF36A
:10112000108281F3108803681C6810218C431C60B6
:1011300082F310880068C269D206B9D5016270BD19
:10114000FFF758FB70BD0000FEB50668012401944E
:10115000E702044678340294144DF4690C408C4242
:1011600013D0EC69A41A9C4211D834686407F4D5F2
:101170004029F2D08029F0D0F469240709D4F46919
:101180003C42EAD00324202506E000240BE003249F
:1011900009E008273D46019C3762FFF7E6FE002084
:1011A00002990870CD602046FEBDC04608000020B0
:1011B000FEB5B04F3868C269016886680125EB0248
:1011C0001C460F34224271D0AB4C0C402E403419D7
:1011D00070D0D407029109D0CC0507D505628421CF
:1011E000A44F7F582F43A34C6750029902271446FF
:1011F00001973C4067426741744274413C430BD1C4
:10120000019C046284249B49095900910427009998
:101210000F4398490F5102997442744157072F4662
:1012200000D52746002F934F0CD104240462842458
:101230000094904F3F59019C27438E49009C0F51C9
:1012400002998C4F14070CD5741EA6418C0600D44D
:101250003546012D05D10824046284257E59264394
:101260007E511A4207D04C0105D503628423FC58F5
:1012700020252543FD5084257B59002B39D092062B
:1012800007D5890605D5B96E002902D038468847AA
:101290003868795928220A408068402630408018F2
:1012A0002AD1FFF7C9F900207851FEBD930601D578
:1012B0008B064FD43B6E012B03D1D30601D5CB0651
:1012C0004ED4100601D5080614D4500611D5480690
:1012D0000FD5EFF31080012181F3108839680A6877
:1012E00040239A430A6080F310880020F86620208B
:1012F000F867FEBDF96E2EE03846FFF736FE386817
:101300008068400664D5EFF31080012181F31088D6
:101310003A689368B343936080F31088786F00282D
:1013200056D002462032554B43635378022B00D0EF
:101330009AE003681C680E25AC431C601C688C4353
:101340001C60C36B046C0D46A5405D6000231370E8
:1013500051708BE0B96E0029CBD046488847FEBD5E
:10136000102101628068400635D45A23F85A582269
:10137000BA5AFB5A002BBCD08242BAD0EFF310828B
:10138000012080F3108809235B013C6825689D4398
:10139000256082F31088EFF3108280F310883B6899
:1013A0009C6884439C6082F3108880222023BB5079
:1013B0000022BA663A66EFF3108280F3108838682C
:1013C00003688B43036082F3108802207866FEBDB9
:1013D000FFF732F9FEBD786F0268526893B2002BB6
:1013E00000D186E758243C5BA34200D381E75A250D
:1013F0007A538069202833D0EFF31082012080F3E4
:1014000010881F4B20333C6826681E40266082F3FC
:101410001088EFF3108280F310883B689C68844347
:101420009C6082F31088EFF3108280F310883B6891
:101430009C684026B4439C6082F31088802220235D
:10144000BB5000223A66EFF3108280F310883868B0
:1014500003688B43036082F31088786FFEF78CFF7C
:1014600002207866785BFEBD04218163FFF772FD80
:10147000FEBDC0464001002020010004550F0008B9
:10148000DFFEFFFFBFF34F8F034804490160BFF346
:101490004F8F00BFFDE7C0460CED00E00400FA05E9
:1014A000B0B586B04A68002A16D00D460446C86812
:1014B000096903460B4306D0059104900020029071
:1014C000064801A9904700206860054803490A5C66
:1014D000521EA24200D10A5406B0B0BDCC01002079
:1014E000EC0600008A480021C1711C490A68920775
:1014F00003D4C27920231343C3710968C90703D1F8
:10150000C17910220A43C27115490A68120603D430
:10151000C27908231343C3710A68520603D4C279FF
:1015200004231343C3710968890603D4C1790222D5
:101530000A43C2710B490968490403D4C1790122E5
:101540000A43C271C179002906D0C17909010F3956
:10155000818181890F31C1817047C04610040048E4
:10156000100000481008004800B59BB0654A10689C
:101570001021149108431060FEF7F4FF624FB86920
:1015800001242043B861B8692040169016982107BD
:10159000F8690843F861F8691391084016901698A5
:1015A00078680007800F09D078680C21014008296D
:1015B0002BD1564810307968014226D138683868F6
:1015C00080210E9108437821109188433860786A11
:1015D000204378624E4EF069796A890704D4F16934
:1015E000091A0229F8D98BE0786B04210D91084380
:1015F0007863786B20437863F069796B890711D43D
:10160000F169091A0229F8D97AE03868204338606C
:101610003F48C1693A689207D1D4C269521A022A76
:10162000F8D96DE0786B0E99084310998843786378
:1016300078680C25284008283AD17868F96A334A36
:10164000103210425CD10F22114059D19104084050
:101650000521C904884253D12A480068C00707D130
:10166000284A10680121014311601068C00747D063
:1016700007200B9000027968014379607968F022B5
:10168000914379603968234A521C114238D07968F5
:10169000022209921143A1437960F1691E4A7B68D5
:1016A0002B40082B3CD0F3695B1A9342F7D927E013
:1016B0002006396881433960F169164A501C3B683D
:1016C000034204D0F069401A0228F7D918E0F96AF9
:1016D0000F229143F9623D2109047A688A4305216A
:1016E000C904511879600D49491C3A680A433A60A7
:1016F000F1693A680242AFD1F269521A022AF8D966
:10170000FEF7B6FD0020024000100240F0FF00008E
:1017100008000020FFFFFF0188130000FFFFFF000B
:10172000FB490968796881437960FEF753FF79685E
:101730000906090FF7A2515CC840FA494860FEF754
:1017400011FF386B03210A9188433863386B149971
:101750008843386300221A92E1047869084378616B
:1017600078690391084015901598A1057869084398
:10177000786178690491084015901598610478693A
:101780000843786178690591084015901598A00480
:1017900079690143796179690140159115980520AE
:1017A0004003E1498862E149C32306938B62E04923
:1017B0000C310791DF4B99620921CB0612939921D5
:1017C0000902089199620F92199218921794169033
:1017D00016A90C91D448D84A904718940F9817909E
:1017E000A00311901690D0480C99D34A90470F98B7
:1017F00019901890179406981690CC480C99CE4AD8
:10180000904718940F981790E020169012980C9912
:10181000C94A904718940F9817900A981690C5488F
:101820000C99C54A90470F981990189017940798EB
:101830001690C0480C99C04A90470F98199018907C
:1018400017940898169012980C99BB4A90471894D0
:101850000F9817900A984003169012980C99B64A60
:10186000904724200C90B54B0F9A1A549C621A6230
:10187000200207900146C131B14805C31A605A6081
:101880009C600D98D8601A6108915961083B986B6B
:10189000002820D1342100205854D8631A90199080
:1018A00001214902BA690A43BA61BA690A4015922C
:1018B00015997969059A11437961796911401591F2
:1018C00018900A98179011201690159816A912983A
:1018D000FEF77AFD994B19463831986BC00600D552
:1018E0000AE118688268520700D505E195491E3162
:1018F0009A6B0A40911C996381680A9A11400129E8
:1019000005D10168C90713D1C168090410D4C168A1
:10191000182291435A6814921A469B680B43C3607D
:101920000A99890703698B4314990B430361134692
:10193000C168854A0A40C260996A012902D0834978
:10194000491C0F91197E89035A7ED3030B437B49AF
:10195000897E149149031943784AD368774A1269FA
:101960000B430F990B43911E4A424A4192001A437E
:10197000724B0C99595C49001143DA7E012A05D15A
:10198000149A002A04D16A4A1032114314910CE0CF
:1019900014919A6B2023134368498B636749CA6B80
:1019A000012313436549CB63644B0899DA698A4282
:1019B00006D062490B6A14991943604B114300E049
:1019C0001499C26814910A43C260DA6A531E072B45
:1019D00000D397E043690B998B4343610A40436905
:1019E00013434361C0685A4A02401498824279D135
:1019F0000024524AD463906B012114910843099941
:101A0000884390631398189016945048401C179080
:101A100016A8FEF733FC002800D071E60D9816904A
:101A200016A8FEF72BFC002800D069E64B4A49496E
:101A30004948139010600691516094601498D060EA
:101A4000104610301421FEF783FBFA4B4122985CBC
:101A500000281498089229D140200021195478694F
:101A6000059A104378617869104015900D981A9086
:101A70001891122017900A98199040021690159804
:101A800016A912981C46FEF79FFC089A23460120CF
:101A90004005F9690143F961F9690140159115980B
:101AA0002068139060680690A468D86802900C992A
:101AB000995413980168149A914301600F210F9172
:101AC0000906069A8A4302618168EB4A11408160E7
:101AD0000298012844D10120C00304431398846074
:101AE00004464AE0154A906B10210143099881434E
:101AF00091633C32114614940868149A10430860AC
:101B0000FEF7B6FB13998A4200D163E76AE7C04645
:101B10000020024000000000000000000102030459
:101B200006070809000000200008004800140048CB
:101B3000F0FF000000040048C90300086400002012
:101B400000240140DFFEFFFF1902FEFFFF0F00002F
:101B5000E7FF3F830A02100000540040A400002069
:101B6000212189020C4313998C6002280C4604D170
:101B70000120C0026168014303E00120C0026168E6
:101B8000814361606068BD4901436160E068104065
:101B9000E060186959690143986900020843E060F0
:101BA000D869196A01432160206801211491084312
:101BB0001394206000205864202408995C54186312
:101BC000422206909854595C202900D098E5402084
:101BD0000290195C012900D192E501920C980899B4
:101BE000585413980168149A914301600168A44AFB
:101BF00011400160016801600168149A114301609D
:101C000008995C540299069A5A5408990A46595CF4
:101C1000202900D074E50C9999540168149A9143D5
:101C200001600F99090202688A4302600168149AF0
:101C300011430160009408981C54029806991954A5
:101C4000904A91491160914911600A9951609049F7
:101C50009160F1698B4AD268520708D0F269521A32
:101C6000282AF7D3874AD2685207F3D048E5854936
:101C70000969874A914203D18649824A116002E08C
:101C80008049834A0A61844B8449069818625862E5
:101C9000E122520206C3186058609860DD60186146
:101CA00058615A6F002A2CD1002010997A4D68543F
:101CB000B969119A1143B961B96911401691169920
:101CC0007969059A114379617969114015910A99E9
:101CD00019911890099817900E2016901598149C39
:101CE0001A9416A91298FEF76FFBFF2000066C49A4
:101CF0008A6882438A60E0066A4908602968686ADF
:101D000006900C9A644BDA670A68149B9A430A603F
:101D1000069800285FD00698020706D54A68564BF9
:101D20001A405D4B5B6B13434B600698C20707D0AC
:101D3000149A52044B689343574A926A1A434A6072
:101D40000698820707D5149A12044B689343524AA7
:101D5000D26A1A434A600698420707D5149A920439
:101D60004B6893434C4A126B1A434A600698C2066A
:101D700006D58A6842480240474B9B6B13438B60F1
:101D80000698820607D5149A52038B689343424AF9
:101D9000D26B1A438A600698420611D5149A12052E
:101DA0004B6893433C4C246C23434B60944207D1D3
:101DB0000A9A52054B689343374A526C1A434A6059
:101DC0000698000607D51498C0044A688243324832
:101DD000806C104348600868334A02402E4DA86862
:101DE0002B6903436C691C431443E86904430C608A
:101DF0000A9A12034B689343EA681A434A60AA6935
:101E00002B6A13430B2212028C6894431C438C6090
:101E1000396B8907090F25A252581499C9038842C2
:101E200016D1082A00D97AE1244803A352009A5A0D
:101E300052009744A40000200A0074014E0074016F
:101E400048007401740174014D00FEF7B1FB3CE0E1
:101E5000082A00D963E119485200C0467A449288A2
:101E6000520097442D005C014F005C0149005C0169
:101E70005C015C014E00C046FF7FFFFF0080000256
:101E8000FFEFFFFF00300040CCCC000055550000B4
:101E9000FF0F0000AAAA0000400100200038014006
:101EA00010E400E000E100E0F369FFFF0000000043
:101EB00004000000080000000200000000127A0088
:101EC000FEF776FB1AE0FEF785FB002801D128E03B
:101ED00008464000EB4949684A081018FEF712F915
:101EE00001461039E84A914200D318E1E649014021
:101EF0000007400F084311E0FEF76CFB002801D1FA
:101F00000FE00846DF4949684A081018FEF7FAF85A
:101F100001461039DC4A914200D300E1D9490968F1
:101F2000C860D84B18688168119A11438160816834
:101F3000D64A114081600168D54A0A4063210904EC
:101F4000511801600168149A114301608421002234
:101F50005A509A661392DA66F469016809070BD53C
:101F600014984105C74D28462246CA4BFFF7ECF8A6
:101F7000002800D0EEE128680068400709D5C14D6F
:101F8000284604992246C34BFFF7DEF8002800D00C
:101F9000EEE10099BB4BD9670E9819501098139A2F
:101FA0001A541A665A661498B065F264326531465E
:101FB00040310A71B8480246083A3264497D002926
:101FC0000AD15421002272547969029A114379612D
:101FD00079691140169116995521099A7254139CEA
:101FE000E2438260026860239A43026002680E9BAB
:101FF0009A43026014987054F4498C61F44AF5488D
:1020000015C10D9A0A604C603D220C398B5C002B87
:1020100016D13C230024CC54FB69079C2343FB616D
:10202000FB6923401693169BFF231B06E54C25688E
:102030009D430A9B9B07EB182360E34B039C1C60AA
:10204000099B8B540B690E9CA3430B9CE401056810
:10205000A5431D438B692B430360CB68C3624B6868
:102060008362149B43610369DB0703D00369149CFB
:10207000A34303614623149CCC543E23CC540B460B
:102080003E335C709C70DC70019BCC540B46423339
:102090005C709C70DC708C548B5C012B08D1099BAC
:1020A0008B54C168149A1143C160016811430160E7
:1020B000307A002815D1C84CA0CC083C2046083006
:1020C000DD21C900FEF744F8A0C414983072012045
:1020D000C249C34CA0470220C249A0470320C249BD
:1020E000A047FEF709FBFFF7FDF91498B0724B20EB
:1020F0000401BE4920468847B04FAF4D2F602046AF
:10210000BA4988472F602046B84988472F601399FD
:10211000B1720098302808D03154401CFAE70020F2
:10212000A7498866C866FEF7A3F86420FEF742F95F
:10213000A148A249016020201499302802D03154CE
:10214000401CFAE76420FEF735F99B489B49016083
:1021500020201399302802D03154401CFAE7642023
:10216000FEF728F9944895490160202014993028F9
:1021700002D03154401CFAE76420FEF71BF98E4868
:102180008E49016020201399302802D03154401C20
:10219000FAE76420FEF70EF987488849016020209D
:1021A0001499302802D03154401CFAE76420FEF71D
:1021B00001F981488149016020201399302802D01B
:1021C0003154401CFAE79BA7707A012801D1FFF730
:1021D00097FAF36912980169149A540305697079A2
:1021E000119A114220D1002829D1149870713071B0
:1021F0006F4948700878401C0870C0B2102801D39D
:1022000000200870087830183021405CF070784861
:10221000181870613361109300F01CF9FFF762F930
:10222000C820FEF7C7F809E0002808D0139870719D
:10223000C8201093FEF7BEF800F00CF9109B254063
:10224000307900282AD0002D28D1B079002815D166
:10225000149CB47133613046303055491D460B46ED
:102260000978425C624042545C701978405CF070BE
:10227000C820FEF79FF800F0EDF82B465C481818D0
:10228000706115E040010020F0FF0000FF7FFFFFBC
:10229000FFFF00FCFFFFFF0108300240002D07D0C8
:1022A000B079002804D01398B071C820FEF782F8E6
:1022B000F469706984423E4809D90F990170002081
:1022C0003071F07000F0C6F8394814994170007808
:1022D00030183022855CFA233220012D194600D0B7
:1022E0000146012D00D01846314D6B78002B06D0E9
:1022F0002B78F3189A5CF270B461139A6A70F278D2
:10230000002A00D00846B169611A81420CD32848DE
:10231000007830182021425C149B5A404254F078D7
:1023200041424141F170B4613046303031A1139ADD
:10233000202A0BD00378002B01D0182300E028239B
:10234000BC5A20C9EC50921C401CF1E71A481B49AA
:10235000016039E7EFF31080149981F31088296840
:102360000A680E9B9A430A6080F310887C3516E059
:10237000EFF31080149B83F3108829680A680D4CD2
:1023800022400A6080F31088EFF3108083F31088F6
:1023900029688A689A438A6080F31088803510988B
:1023A0001399074A115400982860FDF761FFC04651
:1023B00000000020DFFEFFFF00300040AAAA00005E
:1023C0004001002010E400E000E100E0F8000020FF
:1023D0007FBB000000200040CC0100206901000804
:1023E000190A0008F5010008B5010008B503000846
:1023F00010270000000400480004004800040048C2
:102400000000004800140048001400480000004884
:102410000000004800000048000400480004004894
:10242000000400480004004800040048000400487C
:1024300000040048200010000800008080004000D8
:10244000001000080001008000400020001000087B
:102450000004040010B50F20C0430549002806D031
:102460000A184023D35C30241355401CF6E710BDF6
:102470000800002002E008C8121F08C1002AFAD193
:1024800070477047002001E001C1121F002AFBD1F4
:1024900070470000C1C081C1400101C3C003800278
:1024A00041C201C6C006800741C70005C1C581C43D
:1024B000400401CCC00C800D41CD000FC1CF81CEB6
:1024C000400E000AC1CA81CB400B01C9C009800877
:1024D00041C801D8C018801941D9001BC1DB81DA7D
:1024E000401A001EC1DE81DF401F01DDC01D801CBF
:1024F00041DC0014C1D481D5401501D7C017801626
:1025000041D601D2C012801341D30011C1D181D074
:10251000401001F0C030803141F10033C1F381F24D
:1025200040320036C1F681F7403701F5C0358034BE
:1025300041F4003CC1FC81FD403D01FFC03F803EB5
:1025400041FE01FAC03A803B41FB0039C1F981F8F4
:1025500040380028C1E881E9402901EBC02B802ADE
:1025600041EA01EEC02E802F41EF002DC1ED81EC3C
:10257000402C01E4C024802541E50027C1E781E625
:1025800040260022C1E281E3402301E1C0218020F6
:1025900041E001A0C060806141A10063C1A381A2AC
:1025A00040620066C1A681A7406701A5C06580643E
:1025B00041A4006CC1AC81AD406D01AFC06F806EB5
:1025C00041AE01AAC06A806B41AB0069C1A981A874
:1025D00040680078C1B881B9407901BBC07B807A7E
:1025E00041BA01BEC07E807F41BF007DC1BD81BCBC
:1025F000407C01B4C074807541B50077C1B781B625
:1026000040760072C1B281B3407301B1C071807075
:1026100041B00050C190819140510193C05380520C
:1026200041920196C056805741970055C1958194BB
:102630004054019CC05C805D419D005FC19F819EB4
:10264000405E005AC19A819B405B0199C0598058F5
:1026500041980188C04880494189004BC18B818ADB
:10266000404A004EC18E818F404F018DC04D804C3D
:10267000418C0044C184818540450187C047804624
:1026800041860182C042804341830041C1818180F3
:1026900040400000B82600080000002008000000AC
:1026A00074240008C026000808000020B80C0000B0
:1026B00084240008000000000F01000000127A00CE
:04000005080000B13E
:00000001FF
